:02000002B0004C
:1040000000400B007C520B00000006000C00050273
:084010000401E50C00000000B2
:04401800784F0B00D2
:10401C0009480A49884208B505D0094A824202D0AB
:10402C00121A00F0F1FE0748074A0021121A00F09C
:10403C00F9FE014808BD00BF40E60320E8510B0023
:10404C00ACE60320ACE60320EDE7032070B5074E89
:10405C00074C00F031FBA41BA4080025AC4200D196
:10406C0070BD56F8043B98470135F7E794510B00A7
:10407C00B8510B0000F013B808B500F01BF8BDE800
:10408C00084000F0D1BA00F0C9B900F0CFB90078FF
:10409C00B0FA80F04009704701230370704708B5EF
:1040AC000021072000F0F0FDBDE8084001210520AB
:1040BC0000F0EABD08B5072000F010FE014600B183
:1040CC000121BDE80840052000F0EFBD10B5074BFD
:1040DC00074A9A600024C3E90044032000F012F957
:1040EC0021460120BDE8104000F014B9ACE60320D5
:1040FC000000FFFF08B5024B1B689B68019308BDCD
:10410C006802030008B5024B1B68DB68019308BD0D
:10411C006802030008B5024B1B689B68019308BD3D
:10412C002C02030008B5024B1B68DB68019308BD29
:10413C002C02030008B5024B1B681B69019308BDD8
:10414C002C02030008B5024B1B685B69019308BD88
:10415C002C02030008B5024B1B685B68019308BD79
:10416C001802030008B5024B1B685B69019308BD7C
:10417C001802030008B5024B1B685B6C019308BD69
:10418C004802030008B5024B1B685B69019308BD2C
:10419C006402030008B5024B1B68DB68019308BD81
:1041AC003C02030008B5024B1B681B69019308BD58
:1041BC003C02030008B5024B1B685B69019308BD08
:1041CC003C02030008B5024B1B689B69019308BDB8
:1041DC003C02030008B5024B1B68DB69019308BD68
:1041EC003C02030008B5024B1B681B6A019308BD17
:1041FC003C02030008B5024B1B689B6A019308BD87
:10420C003C02030008B5024B1B681B6C019308BDF4
:10421C003C02030008B5024B1B681B6A019308BDE6
:10422C002802030008B5024B1B685B6A019308BDAA
:10423C002802030008B5024B1B689B6A019308BD5A
:10424C002802030008B5024B1B68DB6A019308BD0A
:10425C002802030008B5024B1B681B6B019308BDB9
:10426C002802030008B5024B1B685B6B019308BD69
:10427C002802030008B5024B1B681B6C019308BD98
:10428C002802030008B5024B1B68DB69019308BDCB
:10429C003002030008B5024B1B681B6A019308BD72
:1042AC003002030008B5024B1B681B68019308BD64
:1042BC004C02030008B5024B1B681B69019308BD37
:1042CC004C02030008B5024B1B685B69019308BDE7
:1042DC004C02030008B5024B1B689B69019308BD97
:1042EC004C02030008B5024B1B68DB69019308BD47
:1042FC004C02030008B5024B1B681B6A019308BDF6
:10430C004C02030008B5024B1B685B68019308BDA7
:10431C002002030008B5024B1B68DB6A019308BD41
:10432C002002030008B5034B1B68D3F888300193B7
:10433C0008BD00002002030008B5034B1B68D3F82E
:10434C009430019308BD00002002030008B5024B15
:10435C001B685B68019308BD4002030008B5024B63
:10436C001B689B68019308BD4002030008B5024B13
:10437C001B68DB68019308BD4002030008B5024BC3
:10438C001B681B69019308BD4002030008B5024B72
:10439C001B685B69019308BD4002030008B5024B22
:1043AC001B689B69019308BD4002030008B5024BD2
:1043BC001B68DB69019308BD4002030008B5024B82
:1043CC001B681B6A019308BD4002030008B5024B31
:1043DC001B681B6B019308BD4002030008B5024B20
:1043EC001B685B6B019308BD4002030008B5024BD0
:1043FC001B681B6C019308BD4002030008B5024BFF
:10440C001B685B6C019308BD4002030008B5024BAE
:10441C001B68DB6B019308BD4402030008B5024B1B
:10442C001B681B68019308BD1C02030008B5024BF6
:10443C001B685B68019308BD1C02030008B5024BA6
:10444C001B681B6C019308BD1C02030008B5024BD2
:10445C001B685B6C019308BD1C02030000224068C2
:10446C001146FFF7ABBF002240681146FFF7B6BFFD
:10447C0040680022FFF7AABF4068002281F00101CA
:10448C00FFF794BF002340681A461946FFF786BF12
:10449C00002340681A461946FFF778BF002240688F
:1044AC001146FFF76BBF002240681146FFF756BF5D
:1044BC00406800220221FFF759BF002340681A46CA
:1044CC00FFF744BF024B03225A60024A1A6070473E
:1044DC00B8E60320944F0B0010B504460846217033
:1044EC00FFF7D0FE00236360204610BD054B02226F
:1044FC001A60054B054A9A600020C3E90000FFF7DB
:10450C0001BF00BFCCE60320C0E603200000FFFF84
:10451C00024800230360FFF72DBE00BFD0E6032046
:10452C00F8B506460D468F180024BD420CD03368F2
:10453C0015F8011B9B6830469847031E01DB1C4491
:10454C00F3E7002C08BF1C462046F8BD13B5044603
:10455C00084659B1019100F09BFC23680199DB6876
:10456C000246204602B0BDE81040184702B010BD0C
:10457C0003689B68184730B58BB00023012A8DF86F
:10458C00243098BF0A2209AC0D46B1FBF2F101FBB5
:10459C00125303F0FF03092B94BF30333733DBB2D4
:1045AC00AA4204F8013DEFD92146FFF7CFFF0BB02B
:1045BC0030BD0000014B024A1A607047D4E603205C
:1045CC00C84F0B00024B1A68024B1A60704700BFB1
:1045DC0040E60320D8E60320014B00229A60704786
:1045EC00DCE60320014B1860704700BF44E6032053
:1045FC0008B50B4B43B100F063F903681B6998478E
:10460C00002801DDAFF30080064B43B100F094FBB2
:10461C0003681B699847002801DDAFF3008008BDD3
:10462C00000000000000000008B5FFF7E1FFFFF7F5
:10463C0099FD014B186008BD40E703200548064A68
:10464C00064908B5121A00F0DFFB054B054A1A6043
:10465C0008BD00BF00F4032004F40320E4510B0058
:10466C0000F403201E1C279A07B5002300931A465A
:10467C006FF07701FFF760FE03B05DF804FB0000FC
:10468C0007B543880A2B08D0502B0BD1094B1B685C
:10469C004BB103B05DF804EB1847FFF7E5FF03B02F
:1046AC005DF804FB002300931A466FF07701FFF7C7
:1046BC0043FEF4E7F0E6032010B512480021FFF7A3
:1046CC00C5FE114B1A68114B9A42114B0CBF0122BB
:1046DC0000221A7001D0FFF7B1FFFFF73BFD044633
:1046EC0000F0A8FB0B4B13B12046AFF30080002168
:1046FC000848FFF78BFEBDE8104007480021FFF784
:10470C0011BE00BFF1450B0000F403201E1C279ABC
:10471C00ECE60320000000008D460B00704710B53E
:10472C0018210446FFF7B1FC204610BDF0B5037DFF
:10473C00062B8DB00E4600F104074FF0000412D08A
:10474C0000F1080515F8011D0A223046FFF713FF8A
:10475C00AF42044419D0002CF4D02E213046FFF780
:10476C0007FF0444EEE72F236A4639460A208DF8EA
:10477C000040FFF707FD684600F08AFB33680246ED
:10478C00DB68694630469847044620460DB0F0BDBC
:10479C0010B5054B0446112240F8043B002100F0F3
:1047AC0041FB204610BD00BFF04F0B000346074AEB
:1047BC0010B543F8042B01F1100251F8044B43F8E7
:1047CC00044B9142F9D10A781A7010BDF04F0B00CE
:1047DC0010B59DF8084044EA032343EA024242EA3A
:1047EC00016104234160037510BD000007B5064B41
:1047FC000360CB7800938B784A780978FFF7E8FF51
:10480C0003B05DF804FB00BFF04F0B004174704720
:10481C007047704708B50021007CFFF75BFD40EA4C
:10482C00E07008BD08B50121007CFFF753FD40EA9C
:10483C00E07008BD08B5007CFFF744FD20EAE0708D
:10484C0008BD08B5007CFFF735FD20EAE07008BD17
:10485C0013B50446007C0191FFF734FD0028019943
:10486C0001DC607C20B1207CFFF73CFD20EAE0708D
:10487C0002B010BD007CFFF73DBD10B514210446FD
:10488C00FFF703FC204610BD10B54FF47A730446B5
:10489C0008460021C4E90113044B23600123207452
:1048AC0063741146FFF7FEFC204610BD04500B004C
:1048BC0010B514220446002100F0B4FA204610BDB5
:1048CC0010B50F4C88B003A8FFF7F2FF2178BFF3A7
:1048DC005B8F11F001010FD120460191FFF7D7FB3F
:1048EC00019948B103AA0748FFF7CEFF2046FFF70E
:1048FC00D3FB054800F082FA024808B010BD00BF97
:10490C00F4E60320F8E603201D480B0070474174C1
:10491C00704708B5007CFFF76DFC20EAE07008BD1D
:10492C0008B5007CFFF73EFC20EAE07008BD08B536
:10493C00007CFFF747FC40EAE07008BD08B5007C3E
:10494C00FFF738FC40EAE07008BD007CFFF742BC82
:10495C0037B5457C04462DB1207C03B0BDE8304012
:10496C00FFF718BC007C0191FFF744FC002801996B
:10497C00F2DC284603B030BD10B514210446FFF715
:10498C0084FB204610BD000010B54FF47A7304462A
:10499C00084611460022C4E90123044B236001237D
:1049AC0020746374FFF72EFC204610BD34500B00AE
:1049BC007047F8B5064615460C468F18BC4206D013
:1049CC00336814F8011B9B6830469847F6E7284675
:1049DC00F8BD007C0022FFF71DBC007C0021FFF716
:1049EC0021BC007C0021FFF725BC007C0021FFF7D7
:1049FC0029BC007C0021FFF72DBC10B51421044606
:104A0C00FFF743FB204610BD10B54FF47A730446F4
:104A1C0008460021C4E90113034B2360207411469E
:104A2C00FFF728FC204610BD64500B0000224068A4
:104A3C001146FFF7A3BC002240681146FFF7BEBC2D
:104A4C00002240681146FFF7C9BC40680022FFF7FE
:104A5C00BDBC4068002281F00101FFF7A7BC002318
:104A6C0040681A461946FFF799BC002340681A465D
:104A7C001946FFF78BBC002240681146FFF76EBC4D
:104A8C00406800220221FFF771BC002340681A46DF
:104A9C00FFF75CBC024B04225A60024A1A60704752
:104AAC000CE703208C500B00002340681A46FFF7DC
:104ABC004DBC406800220221FFF758BC0022406820
:104ACC001146FFF74BBC002240681146FFF756BC5D
:104ADC00002340681A461946FFF758BC002340686B
:104AEC001A461946FFF75ABC40680021FFF77EBCF6
:104AFC0040680021FFF782BC4068002281F0010170
:104B0C00FFF754BC40680022FFF760BC00224068ED
:104B1C001146FFF763BC002240681146FFF74EBCFC
:104B2C002DE9F04395B014460D460746FFF730FECD
:104B3C0000211C220DA8009100F074F940230C9365
:104B4C0020466B460CAA0021FFF7DCFA044600282D
:104B5C004BD1024601216868FFF710FC0221804608
:104B6C0022466868FFF70AFC009E81462146002E0B
:104B7C003BD0002939D17368022B03D00A2B11D0FA
:104B8C00F669F4E7B8F1000FFAD0716906A80431A0
:104B9C0007ADFFF72BFE0FCD3C1D0FC42B68237008
:104BAC004146EDE7B9F1000FEAD07469102201A873
:104BBC0000F038F906238DF8143001AD04F1080328
:104BCC001834186859682A4603C20833A34215469C
:104BDC00F7D101A906A807ADFFF7E8FD0FCD3C1DE5
:104BEC000FC42B6823704946CAE70098FFF782FA76
:104BFC00384615B0BDE8F083024B034A1A60002218
:104C0C005A60704714E70320C8500B00232813B5D3
:104C1C0002D9002002B010BDA0F10B03022B1AD850
:104C2C00174C2178BFF35B8F11F001010BD120469B
:104C3C000191FFF72CFA019928B11248FFF74CFCAF
:104C4C002046FFF729FA0F4B1878FFF723FB0028B3
:104C5C00DFD10120DEE7012809D800F0A9F80021F6
:104C6C00007CFFF7FFFA80F00100C0B2D2E70938F0
:104C7C000128EED800F060F8007CFFF7B3FAF2E7F9
:104C8C001CE7032020E70320232838B504460D46F3
:104C9C000AD8FF2908D0FFF7B9FF28B129462046CA
:104CAC00BDE83840FFF736BA38BD38B504460D4676
:104CBC00FFF738FAFF2810D0062804D84D2323FA22
:104CCC0000F0C30709D42046FFF7A0FF28B12946FE
:104CDC002046BDE83840FFF72DBA38BD10B5044664
:104CEC00FFF720FA031FDBB2012B08D92046FFF790
:104CFC008DFF20B12046BDE81040FFF723BA0020FD
:104D0C0010BD704738B5044614252A46002100F022
:104D1C0089F825804025074925812846258200F001
:104D2C006BF804496060284600F066F8E0602046A5
:104D3C0038BD00BFFC500B0030B50E4D2978BFF3C9
:104D4C005B8F11F0010487B011D12846FFF79FF952
:104D5C0068B101A8FFF7D6FF01AA21460648FFF764
:104D6C0013FE2846FFF798F9044800F047F802486C
:104D7C0007B030BD28E703202CE703200F4D0B00B4
:104D8C007047000038B52025142304460360856065
:104D9C0005610649284600F02FF804496060284652
:104DAC0000F02AF8E060204638BD00BFFC500B0034
:104DBC0030B50E4D2978BFF35B8F11F0010487B02D
:104DCC0011D12846FFF763F968B101A8FFF7DAFFA4
:104DDC0001AA21460648FFF717FE2846FFF75CF9A3
:104DEC00044800F00BF8024807B030BD44E703203C
:104DFC0048E703208D4D0B00FFF745B90023014612
:104E0C001A46184600F04CB80A44914200F1FF33A0
:104E1C0000D1704710B511F8014B03F8014F9142C6
:104E2C00F9D110BD02440346934200D1704703F8F8
:104E3C00011BF9E738B5104B1D68AB6B0446B3B9D1
:104E4C001820FFF7EBFA0246A86320B90B4B0C486D
:104E5C004221FFF7F3FA0B490B4BC0E900130B4B44
:104E6C0083600B23838100210120C2E90401AB6B19
:104E7C0000221C615A6138BD44E60320FD500B0032
:104E8C0014510B000E33CDAB34126DE6ECDE050085
:104E9C00034613F8012B002AFBD1181A013870476E
:104EAC002DE9F843DFF8B8800646D8F800001F4615
:104EBC000D46914600F056F8254B1C6834B9254C2C
:104ECC001C60254B13B11B68C4F8883063681F2B1A
:104EDC0007DDD8F8000000F047F84FF0FF30BDE8D0
:104EEC00F8834EB3D4F8880088B91C4B23B9D8F892
:104EFC00000000F038F8F0E74FF48470FFF78EFAFA
:104F0C000028F4D00023C0E94033C4F8880063685B
:104F1C0040F8239001229A4000EB8301D0F8003135
:104F2C001343C0F80031022EC1F8807002BFD0F8D4
:104F3C0004311343C0F804316368D8F800005A1CDC
:104F4C000233626044F8235000F00EF80020C6E7EC
:104F5C00E8E703205CE703200000000029440B0075
:104F6C00A8E6032070477047704700001D400B00F7
:104F7C0059400B0081400B0085400B0000000000E5
:104F8C000000000000000000C7440B00BD440B00F3
:104F9C00B3440B00A9440B009D440B0091440B003F
:104FAC00F54A0B00FD4A0B0085440B007D440B00B9
:104FBC0073440B0069440B002D4B0B0061707000A7
:104FCC0025592D256D2D25645425483A254D3A2516
:104FDC0053257A0061736374696D650000000000ED
:104FEC000000000039470B0029470B002B470B0032
:104FFC0000000000000000001F480B0087480B0059
:10500C005D480B002D450B004F480B0021480B0051
:10501C0031480B0081480B0041480B0019480B002C
:10502C00000000000000000019490B0085490B002E
:10503C005D490B002D450B002D490B0049490B0018
:10504C003B490B0057490B001B490B001F490B0038
:10505C000000000000000000BD490B00074A0B00D7
:10506C00DF490B00BF490B00E7490B00EF490B0070
:10507C00F7490B00FF490B00000000000000000086
:10508C00974A0B008D4A0B00834A0B00394A0B00E0
:10509C00774A0B006B4A0B00F54A0B00FD4A0B00DC
:1050AC005F4A0B00574A0B004D4A0B00434A0B005A
:1050BC002D4B0B000000000000000000B54A0B0057
:1050CC00BF4A0B00C94A0B00D34A0B00DD4A0B0048
:1050DC00E94A0B00F54A0B00FD4A0B00054B0B008F
:1050EC00114B0B00194B0B00234B0B002D4B0B00E2
:1050FC00005245454E54206D616C6C6F6320737586
:10510C0063636565646564002F6D6E742F776F72D1
:10511C006B73706163652F776F726B73706163650E
:10512C002F4743432D31302D706970656C696E6566
:10513C002F6A656E6B696E732D4743432D31302D8D
:10514C00706970656C696E652D34385F3230323041
:10515C00313132345F313630363138303634312FEC
:10516C007372632F6E65776C69622F6E65776C69ED
:10517C00622F6C6962632F7374646C69622F726145
:10518C006E642E6300000000D9400B00D1440B006C
:10519C00F9440B001D450B00C1450B00D1450B001C
:1051AC00E5450B00A14A0B00054C0B00000000006C
:0451BC0000000000EF
:1051C000040000001400000003000000474E5500DA
:1051D000348F0BF503845BCF0CB4719349ADFDAAFA
:0451E0004817C9ABF8
:0451E40000000000C7
:1051E800E04F0B0048E6032000000000000000002C
:1051F80000000000000000000000000000000000A7
:105208000000000000000000000000000000000096
:105218000000000000000000000000000000000086
:105228000000000000000000000000000000000076
:105238000000000000000000000000000000000066
:0C5248000000000000000000ECE7032064
:10525400FFFFFFFF00000102030405060708090A17
:105264000B0C0D0E0F101112131415161718191A12
:085274001B1C1D1E1F20280059
:04527C00785634121A
:04000003B000401CED
:00000001FF
